:0400000080315128D2
:100008007E1480310B1C09280A282F2820000D088F
:10001800F0000430F036890B0E2803307005F1002B
:100028007608F2000130F235FF3E031D17287235BD
:100038007104F3007308F60076080F39203E860035
:1000480087010108B0078039031DFF30B13DB23D7B
:10005800B33D270096012000911E332834284F28ED
:100068000A3023001906031D3A283B283E28F701C9
:10007800F70A4D2872301906031D432844284D28D5
:1000880000302000B3007A30B2001230B1000030E6
:10009800B000200091127E10090080315328703082
:1000A80084008130850020308600003087001030C1
:1000B8008131A4218031F601F701F801B401B501BD
:1000C800B601B7017E10200080316A28F030210087
:1000D8009900093023008C008D01FF3021008C002D
:1000E800FA308D0020008D018C0122009D019E01B7
:1000F800083023009F009C0144309B0024309E0060
:1001080090309D0022009701503021009E00303031
:10011800270095003030940096018B15200091122D
:10012800210091160B178B1700302000B3007A308E
:10013800B2001230B1000030B00022000D14770870
:100148000319A728A828A328013021009D00813180
:10015800802180312000B8003808F8007808B800FD
:100168000430B836890BB528380881318E218031A2
:1001780078080F3981318E2180310D3021009D00A2
:100188008131802180312000B8003808F8007808D3
:10019800B8000430B836890BCE28380881318E2152
:1001A800803178080F3981318E2180312000330861
:1001B800B7003208B6003108B5003008B40034087A
:1001C800B8003508B9003608BA003708BB00123045
:1001D800BB36BA0CB90CB80C890BEC2838083F3977
:1001E80081318E21803120003408B8003508B900EB
:1001F8003608BA003708BB000C30BB36BA0CB90C4D
:10020800B80C890B012938083F3981318E2180319A
:1002180020003408B8003508B9003608BA00370895
:10022800BB000630BB36BA0CB90CB80C890B1629C2
:1002380038083F3981318E218031200034083F3918
:1002480081318E2180310A3081319B218031F70143
:10025800A3288031512830343134323433343434A3
:1002680035343634373438343934613462346334AD
:100278006434653466346734683469346A346B349A
:100288006C346D346E346F3470347134723473344A
:100298007434753476347734783479347A34413434
:1002A800423443344434453446344734483449347A
:1002B8004A344B344C344D344E344F34503451342A
:1002C80052345334543455345634573458345934DA
:1002D8005A342B342D3400340034FF3401340034C4
:1002E800013400340034FF34FF3400340034013466
:1002F80000340134FF3400348530890B8129000033
:1003080021009D14000021009D188B298C29872924
:100318001B080800F50075082F3E8400813003187B
:10032800013E8500000881319B2181310800F400DD
:1003380023009E1CA029A1299C2974089A00080062
:0C034800FE0012001E00FE0BA529003470
:020000040001F9
:04000E00840FFF1A42
:00000001FF
