:0400000080315428CF
:100008007E1480310B1C09280A283828780C0339FB
:10001800F0000230F035890B0E2820307007F1000F
:1000280020000D08F2000430F236890B18287208F7
:1000380003397107F3007308860087010108F4008B
:10004800F5017408FA077508FB3D0D08F000043047
:10005800F036890B2C2870080339F100F10D780867
:100068007106F9397106F8002000911E3C283D28D8
:1000780052280A3023001906031D4328442846281D
:100088007814502872301906031D4B284C28502824
:100098000030FA001230FB00200091127E10090097
:1000A80080315628683084008130850020308600F1
:1000B8000030870010308131AE218031F601F70120
:1000C800F801F9017E10200080316A28F030210003
:1000D8009900093023008C008D01FF3021008C002D
:1000E800FA308D0020008D018C0122009D019E01B7
:1000F800083023009F009C0144309B0024309E0060
:1001080090309D0022009701503021009E00303031
:10011800270095003030940096018B15200091122D
:10012800210091160B178B170030FA001230FB00D4
:1001380020000D08B2000430B236890BA02832081E
:100148000339B300B30D78083306F9393306F800DC
:1001580022000D14781CB128B228AE2801302100E5
:100168009D008131942180312000B2003208F900CD
:100178007908B2000430B236890BBF2832088131C1
:100188008621803179080F398131862180310D30FF
:1001980021009D008131942180312000B200320875
:1001A800F9007908B2000430B236890BD828320831
:1001B80081318621803179080F398131862180315A
:1001C8007B08F7007A08F6007608813178218031BB
:1001D80077082000B3007608B200330E0F39B2005A
:1001E800B30132083F398131782180317708200006
:1001F800B3007608B2000630B336B20C890B00297A
:1002080032083F3981317821803176083F39813190
:10021800782180310A308131A22180317810AE28CE
:100228008031542830343134323433343434353432
:1002380036343734383439346134623463346434AE
:10024800653466346734683469346A346B346C34C2
:100258006D346E346F347034713472347334743472
:10026800753476347734783479347A344134423496
:1002780043344434453446344734483449344A34A2
:100288004B344C344D344E344F3450345134523452
:1002980053345434553456345734583459345A3402
:1002A8002B342D3400343034313432343334343454
:1002B80035343634373438343934413442344334BD
:1002C800443445344634003400340134FF340034B7
:1002D800FF34003400340134013400340034FF3476
:1002E8000034FF34013400342000B1003108163ED8
:1002F800840081300318013E850000088131A22165
:10030800813108002000B1003108573E8400813057
:100318000318013E850000088131A22181310800BF
:100328008530890B9529000021009D1400002100CB
:100338009D189F29A0299B291B0808002000B000B0
:1003480023009E1CA829A929A429200030082300DD
:100358009A000800FE0012001E00FE0BAF290034B0
:020000040001F9
:04000E00840FFF1A42
:00000001FF
