:0400000080315128D2
:100008007E1480310B1C09280A282F2820000D088F
:10001800F0000430F036890B0E2803307005F1002B
:100028007608F2000130F235FF3E031D17287235BD
:100038007104F3007308F60076080F39203E860035
:1000480087010108B8078039031DFF30B93DBA3D63
:10005800BB3D270096012000911E332834284F28E5
:100068000A3023001906031D3A283B283E28F701C9
:10007800F70A4D2872301906031D432844284D28D5
:1000880000302000BB007A30BA001230B9000030CE
:10009800B800200091127E10090080315328863064
:1000A80084008130850020308600003087001030C1
:1000B8008131AC218031F601F701F801BC01BD01A5
:1000C800BE01BF017E10200080316A28F030210077
:1000D800990000302000BB007A30BA001230B90015
:1000E8000030B800093023008C008D01FF3021005A
:1000F8008C00FA308D0020008D018C0122009D01BA
:100108009E01083023009F009C0144309B0024304E
:100118009E0090309D0022009701D03021009E0063
:100128003030270095003030940096018B15200060
:1001380091128B178B1BA128A3280B17A4280B132C
:100148000B1BA728AA2821009116AC282100911280
:1001580022000D1477080319B228B328AE280130FD
:1001680021009D008131552180310D3021009D00F5
:1001780081315521803120003B08BF003A08BE007C
:100188003908BD003808BC003C08B4003D08B5007B
:100198003E08B6003F08B7001230B736B60CB50CAB
:1001A800B40C890BD12834083F398131962180312C
:1001B80020003C08B4003D08B5003E08B6003F08E2
:1001C800B7000C30B736B60CB50CB40C890BE62862
:1001D80034083F3981319621803120003C08B40031
:1001E8003D08B5003E08B6003F08B7000630B736F0
:1001F800B60CB50CB40C890BFB2834083F39813197
:100208009621803120003C083F3981319621803188
:100218000A308131A3218031F701AE28803151287D
:10022800303431343234333434343534363437348A
:100238003834393461346234633464346534663450
:100248006734683469346A346B346C346D346E34B2
:100258006F34703471347234733474347534763462
:100268007734783479347A344134423443344434FA
:10027800453446344734483449344A344B344C3492
:100288004D344E344F345034513452345334543442
:10029800553456345734583459345A342B342D3451
:1002A8000034A630890B5629003221009D14000025
:1002B80021009D18602961295C2903301C05200054
:1002C800B0003008B20021001B082000B100320D38
:1002D800B20CB10C320DB20CB10C3108B3003308BA
:1002E800F8007808B0000430B036890B7829300857
:1002F8000F3981319621813178080F398131962162
:10030800813108000034FF340134003401340034F2
:100318000034FF34FF340034003401340034013435
:10032800FF340034F5007508143E8400813003184A
:10033800013E850000088131A32181310800F400C5
:1003480023009E1CA829A929A42974089A0008003A
:0C035800FE0012001E00FE0BAD29003458
:020000040001F9
:04000E00840FFF1A42
:00000001FF
